{
  "transactions": [
    {
      "hash": "0x1951c656c5abb10cdfa46aac15fdc8dd8ee837d37b9f1daf0d6ca5611763e927",
      "transactionType": "CALL",
      "contractName": null,
      "contractAddress": "0x8103b0a8a00be2ddc778e6e7eaa21791cd364625",
      "function": "createSubscription()",
      "arguments": [],
      "transaction": {
        "from": "0x3b29236323d90e62782737eaef81a2dfdbfb95fd",
        "to": "0x8103b0a8a00be2ddc778e6e7eaa21791cd364625",
        "gas": "0x1558c",
        "value": "0x0",
        "input": "0xa21a23e4",
        "nonce": "0x63",
        "chainId": "0xaa36a7"
      },
      "additionalContracts": [],
      "isFixedGasLimit": false
    },
    {
      "hash": "0xcbb86fa172c9118c3de23f48d9ea0cd70db95c8d42ee080d8c7ee6cfa304b622",
      "transactionType": "CALL",
      "contractName": "LinkToken",
      "contractAddress": "0x779877a7b0d9e8603169ddbd7836e478b4624789",
      "function": "transferAndCall(address,uint256,bytes)",
      "arguments": [
        "0x8103B0A8A00be2DDC778e6e7eaa21791Cd364625",
        "3000000000000000000",
        "0x0000000000000000000000000000000000000000000000000000000000002e98"
      ],
      "transaction": {
        "from": "0x3b29236323d90e62782737eaef81a2dfdbfb95fd",
        "to": "0x779877a7b0d9e8603169ddbd7836e478b4624789",
        "gas": "0x1b43f",
        "value": "0x0",
        "input": "0x4000aea00000000000000000000000008103b0a8a00be2ddc778e6e7eaa21791cd36462500000000000000000000000000000000000000000000000029a2241af62c0000000000000000000000000000000000000000000000000000000000000000006000000000000000000000000000000000000000000000000000000000000000200000000000000000000000000000000000000000000000000000000000002e98",
        "nonce": "0x64",
        "chainId": "0xaa36a7"
      },
      "additionalContracts": [],
      "isFixedGasLimit": false
    },
    {
      "hash": "0xd8de8d0d398303187b9e4715b6bd8374f39a94284da05632a858bda21815c564",
      "transactionType": "CREATE",
      "contractName": "ToucanRaffle",
      "contractAddress": "0xec65ad7be8169bab11f193d3710b69ed00f2e3c2",
      "function": null,
      "arguments": [
        "11928",
        "0x474e34a077df58807dbe9c96d3c009b23b3c6d0cce433e59bbf5b34f823bc56c",
        "30",
        "10000000000000000",
        "500000",
        "0x8103B0A8A00be2DDC778e6e7eaa21791Cd364625"
      ],
      "transaction": {
        "from": "0x3b29236323d90e62782737eaef81a2dfdbfb95fd",
        "gas": "0xe8724",
        "value": "0x0",
        "input": "0x61016060405234801561001157600080fd5b50604051610d78380380610d78833981016040819052610030916100bb565b6001600160a01b038116608081905260a05260e08590526101208490526001600160401b03861660c0526101408390526003805460ff191690554260005563ffffffff8216610100524780156100af57604051339082156108fc029083906000818181858888f193505050501580156100ad573d6000803e3d6000fd5b505b50505050505050610146565b60008060008060008060c087890312156100d457600080fd5b86516001600160401b03811681146100eb57600080fd5b80965050602087015194506040870151935060608701519250608087015163ffffffff8116811461011b57600080fd5b60a08801519092506001600160a01b038116811461013857600080fd5b809150509295509295509295565b60805160a05160c05160e051610100516101205161014051610bc46101b46000396000818160d6015261030701526000818161020a01526105d5015260006104d001526000610472015260006104980152600061050c01526000818161028301526102c50152610bc46000f3fe6080604052600436106100c25760003560e01c806353a2c19a1161007f57806391ad27b41161005957806391ad27b4146101fb578063c1c244e81461022e578063e55ae4e814610243578063fd6673f51461026357600080fd5b806353a2c19a146101a55780635f1b0fd8146101b95780636e04ff0d146101cd57600080fd5b806309bc33a7146100c7578063115cbaf5146101095780631fe543e3146101295780632cfcc5391461014b5780634585e33b14610153578063473f1ddc14610173575b600080fd5b3480156100d357600080fd5b507f00000000000000000000000000000000000000000000000000000000000000005b6040519081526020015b60405180910390f35b34801561011557600080fd5b5060035460ff16604051610100919061087c565b34801561013557600080fd5b506101496101443660046108eb565b610278565b005b610149610305565b34801561015f57600080fd5b5061014961016e36600461099d565b6103eb565b34801561017f57600080fd5b506001546001600160a01b03165b6040516001600160a01b039091168152602001610100565b3480156101b157600080fd5b5060016100f6565b3480156101c557600080fd5b5060036100f6565b3480156101d957600080fd5b506101ed6101e8366004610a0f565b6105ad565b604051610100929190610aa4565b34801561020757600080fd5b507f00000000000000000000000000000000000000000000000000000000000000006100f6565b34801561023a57600080fd5b506000546100f6565b34801561024f57600080fd5b5061018d61025e366004610afd565b610652565b34801561026f57600080fd5b506002546100f6565b336001600160a01b037f000000000000000000000000000000000000000000000000000000000000000016146102f75760405163073e64fd60e21b81523360048201526001600160a01b037f00000000000000000000000000000000000000000000000000000000000000001660248201526044015b60405180910390fd5b6103018282610682565b5050565b7f00000000000000000000000000000000000000000000000000000000000000003410156103465760405163181c600560e11b815260040160405180910390fd5b600060035460ff16600181111561035f5761035f610866565b1461037d5760405163349289c560e21b815260040160405180910390fd5b6002805460018101825560009182527f405787fa12a823e0f2b7631cc41b3ba8828b3321ca811111fa75cd3aa3bb5ace0180546001600160a01b0319163390811790915560405190917f0805e1d667bddb8a95f0f09880cf94f403fb596ce79928d9f29b74203ba284d491a2565b6000610405604051806020016040528060008152506105ad565b509050806104545760025460035447919060ff16600181111561042a5761042a610866565b604051632c2193d560e11b81526004810193909352602483019190915260448201526064016102ee565b6003805460ff1916600190811782556040516305d3b1d360e41b81527f000000000000000000000000000000000000000000000000000000000000000060048201527f000000000000000000000000000000000000000000000000000000000000000067ffffffffffffffff16602482015260448101929092527f000000000000000000000000000000000000000000000000000000000000000063ffffffff16606483015260848201526000906001600160a01b037f00000000000000000000000000000000000000000000000000000000000000001690635d3b1d309060a4016020604051808303816000875af1158015610555573d6000803e3d6000fd5b505050506040513d601f19601f820116820180604052508101906105799190610b16565b60405190915081907fcd6e45c8998311cab7e9d4385596cac867e20a0587194b954fa3a731c93ce78b90600090a250505050565b600354600090606090829060ff1660018111156105cc576105cc610866565b600014905060007f0000000000000000000000000000000000000000000000000000000000000000600054426106029190610b2f565b6002549110915015154715158280156106185750835b80156106215750805b801561062a5750815b60408051808201909152600381526203078360ec1b6020820152909890975095505050505050565b60006002828154811061066757610667610b56565b6000918252602090912001546001600160a01b031692915050565b60006002805490508260008151811061069d5761069d610b56565b60200260200101516106af9190610b6c565b90506000600282815481106106c6576106c6610b56565b6000918252602082200154600180546001600160a01b0319166001600160a01b039092169182179055915060405190808252806020026020018201604052801561071a578160200160208202803683370190505b50805161072f916002916020909101906107ec565b506003805460ff191690554260009081556040516001600160a01b038316917f5b690ec4a06fe979403046eaeea5b3ce38524683c3001f662c8b5a829632f7df91a26000816001600160a01b03164760405160006040518083038185875af1925050503d80600081146107be576040519150601f19603f3d011682016040523d82523d6000602084013e6107c3565b606091505b50509050806107e55760405163a1d04b3960e01b815260040160405180910390fd5b5050505050565b828054828255906000526020600020908101928215610841579160200282015b8281111561084157825182546001600160a01b0319166001600160a01b0390911617825560209092019160019091019061080c565b5061084d929150610851565b5090565b5b8082111561084d5760008155600101610852565b634e487b7160e01b600052602160045260246000fd5b602081016002831061089e57634e487b7160e01b600052602160045260246000fd5b91905290565b634e487b7160e01b600052604160045260246000fd5b604051601f8201601f1916810167ffffffffffffffff811182821017156108e3576108e36108a4565b604052919050565b600080604083850312156108fe57600080fd5b8235915060208084013567ffffffffffffffff8082111561091e57600080fd5b818601915086601f83011261093257600080fd5b813581811115610944576109446108a4565b8060051b91506109558483016108ba565b818152918301840191848101908984111561096f57600080fd5b938501935b8385101561098d57843582529385019390850190610974565b8096505050505050509250929050565b600080602083850312156109b057600080fd5b823567ffffffffffffffff808211156109c857600080fd5b818501915085601f8301126109dc57600080fd5b8135818111156109eb57600080fd5b8660208285010111156109fd57600080fd5b60209290920196919550909350505050565b60006020808385031215610a2257600080fd5b823567ffffffffffffffff80821115610a3a57600080fd5b818501915085601f830112610a4e57600080fd5b813581811115610a6057610a606108a4565b610a72601f8201601f191685016108ba565b91508082528684828501011115610a8857600080fd5b8084840185840137600090820190930192909252509392505050565b82151581526000602060406020840152835180604085015260005b81811015610adb57858101830151858201606001528201610abf565b506000606082860101526060601f19601f830116850101925050509392505050565b600060208284031215610b0f57600080fd5b5035919050565b600060208284031215610b2857600080fd5b5051919050565b81810381811115610b5057634e487b7160e01b600052601160045260246000fd5b92915050565b634e487b7160e01b600052603260045260246000fd5b600082610b8957634e487b7160e01b600052601260045260246000fd5b50069056fea264697066735822122002d6a9f2162487406331b09b0deca298a4f9fe6d04f314f5e45008007ba23d9264736f6c634300081900330000000000000000000000000000000000000000000000000000000000002e98474e34a077df58807dbe9c96d3c009b23b3c6d0cce433e59bbf5b34f823bc56c000000000000000000000000000000000000000000000000000000000000001e000000000000000000000000000000000000000000000000002386f26fc10000000000000000000000000000000000000000000000000000000000000007a1200000000000000000000000008103b0a8a00be2ddc778e6e7eaa21791cd364625",
        "nonce": "0x65",
        "chainId": "0xaa36a7"
      },
      "additionalContracts": [],
      "isFixedGasLimit": false
    },
    {
      "hash": "0xa4ff3e13a17a5d047b9ea80f8510426f7568b30bfad6f6ca50d95296c052d919",
      "transactionType": "CALL",
      "contractName": null,
      "contractAddress": "0x8103b0a8a00be2ddc778e6e7eaa21791cd364625",
      "function": "addConsumer(uint64,address)",
      "arguments": [
        "11928",
        "0xeC65aD7BE8169BAB11f193D3710b69eD00f2E3c2"
      ],
      "transaction": {
        "from": "0x3b29236323d90e62782737eaef81a2dfdbfb95fd",
        "to": "0x8103b0a8a00be2ddc778e6e7eaa21791cd364625",
        "gas": "0x20079",
        "value": "0x0",
        "input": "0x7341c10c0000000000000000000000000000000000000000000000000000000000002e98000000000000000000000000ec65ad7be8169bab11f193d3710b69ed00f2e3c2",
        "nonce": "0x66",
        "chainId": "0xaa36a7"
      },
      "additionalContracts": [],
      "isFixedGasLimit": false
    }
  ],
  "receipts": [
    {
      "status": "0x1",
      "cumulativeGasUsed": "0xb0b5c5",
      "logs": [
        {
          "address": "0x8103b0a8a00be2ddc778e6e7eaa21791cd364625",
          "topics": [
            "0x464722b4166576d3dcbba877b999bc35cf911f4eaf434b7eba68fa113951d0bf",
            "0x0000000000000000000000000000000000000000000000000000000000002e98"
          ],
          "data": "0x0000000000000000000000003b29236323d90e62782737eaef81a2dfdbfb95fd",
          "blockHash": "0xec697b9a9f9ed9701e489ecb473e570aafbb8198673966a189346c09c4e20c66",
          "blockNumber": "0x5e1b38",
          "transactionHash": "0x1951c656c5abb10cdfa46aac15fdc8dd8ee837d37b9f1daf0d6ca5611763e927",
          "transactionIndex": "0x3d",
          "logIndex": "0x9a",
          "removed": false
        }
      ],
      "logsBloom": "0x0000000000000000000001000000000000000000000000000000000000000000010000000000000000000000000000000000000000000000000000000000000000000000000800000000000000000000000000000000000000000000000000000000000000000000000000000000000000000000000000000000000000000000000000000c000020000000000000001000000000000000000000000000000000000000000000000000000000000000000000000000000000000000000000000000000000000000200000000000000000000000000000000000000000000000000000000000000000000000000000000000010000000000000000000000000000",
      "type": "0x2",
      "transactionHash": "0x1951c656c5abb10cdfa46aac15fdc8dd8ee837d37b9f1daf0d6ca5611763e927",
      "transactionIndex": "0x3d",
      "blockHash": "0xec697b9a9f9ed9701e489ecb473e570aafbb8198673966a189346c09c4e20c66",
      "blockNumber": "0x5e1b38",
      "gasUsed": "0xe98a",
      "effectiveGasPrice": "0x423d0669",
      "from": "0x3b29236323d90e62782737eaef81a2dfdbfb95fd",
      "to": "0x8103b0a8a00be2ddc778e6e7eaa21791cd364625",
      "contractAddress": null
    },
    {
      "status": "0x1",
      "cumulativeGasUsed": "0xb2346b",
      "logs": [
        {
          "address": "0x779877a7b0d9e8603169ddbd7836e478b4624789",
          "topics": [
            "0xddf252ad1be2c89b69c2b068fc378daa952ba7f163c4a11628f55a4df523b3ef",
            "0x0000000000000000000000003b29236323d90e62782737eaef81a2dfdbfb95fd",
            "0x0000000000000000000000008103b0a8a00be2ddc778e6e7eaa21791cd364625"
          ],
          "data": "0x00000000000000000000000000000000000000000000000029a2241af62c0000",
          "blockHash": "0xec697b9a9f9ed9701e489ecb473e570aafbb8198673966a189346c09c4e20c66",
          "blockNumber": "0x5e1b38",
          "transactionHash": "0xcbb86fa172c9118c3de23f48d9ea0cd70db95c8d42ee080d8c7ee6cfa304b622",
          "transactionIndex": "0x3f",
          "logIndex": "0x9b",
          "removed": false
        },
        {
          "address": "0x779877a7b0d9e8603169ddbd7836e478b4624789",
          "topics": [
            "0xe19260aff97b920c7df27010903aeb9c8d2be5d310a2c67824cf3f15396e4c16",
            "0x0000000000000000000000003b29236323d90e62782737eaef81a2dfdbfb95fd",
            "0x0000000000000000000000008103b0a8a00be2ddc778e6e7eaa21791cd364625"
          ],
          "data": "0x00000000000000000000000000000000000000000000000029a2241af62c0000000000000000000000000000000000000000000000000000000000000000004000000000000000000000000000000000000000000000000000000000000000200000000000000000000000000000000000000000000000000000000000002e98",
          "blockHash": "0xec697b9a9f9ed9701e489ecb473e570aafbb8198673966a189346c09c4e20c66",
          "blockNumber": "0x5e1b38",
          "transactionHash": "0xcbb86fa172c9118c3de23f48d9ea0cd70db95c8d42ee080d8c7ee6cfa304b622",
          "transactionIndex": "0x3f",
          "logIndex": "0x9c",
          "removed": false
        },
        {
          "address": "0x8103b0a8a00be2ddc778e6e7eaa21791cd364625",
          "topics": [
            "0xd39ec07f4e209f627a4c427971473820dc129761ba28de8906bd56f57101d4f8",
            "0x0000000000000000000000000000000000000000000000000000000000002e98"
          ],
          "data": "0x000000000000000000000000000000000000000000000000000000000000000000000000000000000000000000000000000000000000000029a2241af62c0000",
          "blockHash": "0xec697b9a9f9ed9701e489ecb473e570aafbb8198673966a189346c09c4e20c66",
          "blockNumber": "0x5e1b38",
          "transactionHash": "0xcbb86fa172c9118c3de23f48d9ea0cd70db95c8d42ee080d8c7ee6cfa304b622",
          "transactionIndex": "0x3f",
          "logIndex": "0x9d",
          "removed": false
        }
      ],
      "logsBloom": "0x0000001400000000000000000000000000000000000000020000000002000000000000000000800000000000000000000000000000000000000000000000000000000000000800000000000800000000000000000000000000002000200100000000000000000000000000000000000000000000400000000000081000000000000000000c000020000000000000801010000020000000000000000000000000000000000000000000000000000000000000000000000000000400000000000000000002000000000000000000000000000000000000000100000000000000000000000000000000000000000000000000010000000000000000000000000000",
      "type": "0x2",
      "transactionHash": "0xcbb86fa172c9118c3de23f48d9ea0cd70db95c8d42ee080d8c7ee6cfa304b622",
      "transactionIndex": "0x3f",
      "blockHash": "0xec697b9a9f9ed9701e489ecb473e570aafbb8198673966a189346c09c4e20c66",
      "blockNumber": "0x5e1b38",
      "gasUsed": "0x12a4a",
      "effectiveGasPrice": "0x423d0669",
      "from": "0x3b29236323d90e62782737eaef81a2dfdbfb95fd",
      "to": "0x779877a7b0d9e8603169ddbd7836e478b4624789",
      "contractAddress": null
    },
    {
      "status": "0x1",
      "cumulativeGasUsed": "0xbe0ae8",
      "logs": [],
      "logsBloom": "0x00000000000000000000000000000000000000000000000000000000000000000000000000000000000000000000000000000000000000000000000000000000000000000000000000000000000000000000000000000000000000000000000000000000000000000000000000000000000000000000000000000000000000000000000000000000000000000000000000000000000000000000000000000000000000000000000000000000000000000000000000000000000000000000000000000000000000000000000000000000000000000000000000000000000000000000000000000000000000000000000000000000000000000000000000000000",
      "type": "0x2",
      "transactionHash": "0xd8de8d0d398303187b9e4715b6bd8374f39a94284da05632a858bda21815c564",
      "transactionIndex": "0x42",
      "blockHash": "0xec697b9a9f9ed9701e489ecb473e570aafbb8198673966a189346c09c4e20c66",
      "blockNumber": "0x5e1b38",
      "gasUsed": "0xb2dc5",
      "effectiveGasPrice": "0x423d0669",
      "from": "0x3b29236323d90e62782737eaef81a2dfdbfb95fd",
      "to": null,
      "contractAddress": "0xec65ad7be8169bab11f193d3710b69ed00f2e3c2"
    },
    {
      "status": "0x1",
      "cumulativeGasUsed": "0xbf7dee",
      "logs": [
        {
          "address": "0x8103b0a8a00be2ddc778e6e7eaa21791cd364625",
          "topics": [
            "0x43dc749a04ac8fb825cbd514f7c0e13f13bc6f2ee66043b76629d51776cff8e0",
            "0x0000000000000000000000000000000000000000000000000000000000002e98"
          ],
          "data": "0x000000000000000000000000ec65ad7be8169bab11f193d3710b69ed00f2e3c2",
          "blockHash": "0xec697b9a9f9ed9701e489ecb473e570aafbb8198673966a189346c09c4e20c66",
          "blockNumber": "0x5e1b38",
          "transactionHash": "0xa4ff3e13a17a5d047b9ea80f8510426f7568b30bfad6f6ca50d95296c052d919",
          "transactionIndex": "0x43",
          "logIndex": "0x9e",
          "removed": false
        }
      ],
      "logsBloom": "0x0000000000000000000000000000000000000000000000000000000000000000000000000000000000000000000000000000000000000000000000000000000000000000000800000000000000000000000000000000000000000000000000000000000000008000000000000000000000000000000000000000000000000000000000000c000020000000000000001000000000000000000000000000000000000000000000000000000080000000000000000000000000000000000000000000000000000000000000000000000000000000000000000000020000000000000000000000000000000000000000000000010000000000000000000000000000",
      "type": "0x2",
      "transactionHash": "0xa4ff3e13a17a5d047b9ea80f8510426f7568b30bfad6f6ca50d95296c052d919",
      "transactionIndex": "0x43",
      "blockHash": "0xec697b9a9f9ed9701e489ecb473e570aafbb8198673966a189346c09c4e20c66",
      "blockNumber": "0x5e1b38",
      "gasUsed": "0x17306",
      "effectiveGasPrice": "0x423d0669",
      "from": "0x3b29236323d90e62782737eaef81a2dfdbfb95fd",
      "to": "0x8103b0a8a00be2ddc778e6e7eaa21791cd364625",
      "contractAddress": null
    }
  ],
  "libraries": [
    "lib/foundry-devops/src/DevOpsTools.sol:DevOpsTools:0x1BE0E723fE52E4E0d2595B4aE3C5d58F6480402d"
  ],
  "pending": [],
  "returns": {
    "0": {
      "internal_type": "contract ToucanRaffle",
      "value": "0xeC65aD7BE8169BAB11f193D3710b69eD00f2E3c2"
    },
    "1": {
      "internal_type": "contract HelperConfig",
      "value": "0xC7f2Cf4845C6db0e1a1e91ED41Bcd0FcC1b0E141"
    }
  },
  "timestamp": 1719124581,
  "chain": 11155111,
  "commit": "41c12f7"
}