{
  "transactions": [
    {
      "hash": "0xf6a04b8da414538818593e11cf97950dacb1feaf7df2bc0e2fafab4a9f285d1d",
      "transactionType": "CALL",
      "contractName": null,
      "contractAddress": "0x8103b0a8a00be2ddc778e6e7eaa21791cd364625",
      "function": "createSubscription()",
      "arguments": [],
      "transaction": {
        "from": "0x3b29236323d90e62782737eaef81a2dfdbfb95fd",
        "to": "0x8103b0a8a00be2ddc778e6e7eaa21791cd364625",
        "gas": "0x1558c",
        "value": "0x0",
        "input": "0xa21a23e4",
        "nonce": "0x6b",
        "chainId": "0xaa36a7"
      },
      "additionalContracts": [],
      "isFixedGasLimit": false
    },
    {
      "hash": "0xa0bac5e27587ed09fa1c2f1414049f64cf04dd99c14c49db3e0ce6668f30616b",
      "transactionType": "CALL",
      "contractName": "LinkToken",
      "contractAddress": "0x779877a7b0d9e8603169ddbd7836e478b4624789",
      "function": "transferAndCall(address,uint256,bytes)",
      "arguments": [
        "0x8103B0A8A00be2DDC778e6e7eaa21791Cd364625",
        "3000000000000000000",
        "0x0000000000000000000000000000000000000000000000000000000000002e9a"
      ],
      "transaction": {
        "from": "0x3b29236323d90e62782737eaef81a2dfdbfb95fd",
        "to": "0x779877a7b0d9e8603169ddbd7836e478b4624789",
        "gas": "0x1b43f",
        "value": "0x0",
        "input": "0x4000aea00000000000000000000000008103b0a8a00be2ddc778e6e7eaa21791cd36462500000000000000000000000000000000000000000000000029a2241af62c0000000000000000000000000000000000000000000000000000000000000000006000000000000000000000000000000000000000000000000000000000000000200000000000000000000000000000000000000000000000000000000000002e9a",
        "nonce": "0x6c",
        "chainId": "0xaa36a7"
      },
      "additionalContracts": [],
      "isFixedGasLimit": false
    },
    {
      "hash": "0x3865bfe75b730a9cd8673be8c29ec3cb68c11698bc589e1b96c8eef2abd9d67c",
      "transactionType": "CREATE",
      "contractName": "ToucanRaffle",
      "contractAddress": "0x6f68d3667ef64c48a54325d818b7f0f7797076f7",
      "function": null,
      "arguments": [
        "11930",
        "0x474e34a077df58807dbe9c96d3c009b23b3c6d0cce433e59bbf5b34f823bc56c",
        "30",
        "10000000000000000",
        "500000",
        "0x8103B0A8A00be2DDC778e6e7eaa21791Cd364625"
      ],
      "transaction": {
        "from": "0x3b29236323d90e62782737eaef81a2dfdbfb95fd",
        "gas": "0xfc0a7",
        "value": "0x0",
        "input": "0x61016060405234801561001157600080fd5b50604051610e96380380610e96833981016040819052610030916100bb565b6001600160a01b038116608081905260a05260e08590526101208490526001600160401b03861660c0526101408390526003805460ff191690554260005563ffffffff8216610100524780156100af57604051339082156108fc029083906000818181858888f193505050501580156100ad573d6000803e3d6000fd5b505b50505050505050610146565b60008060008060008060c087890312156100d457600080fd5b86516001600160401b03811681146100eb57600080fd5b80965050602087015194506040870151935060608701519250608087015163ffffffff8116811461011b57600080fd5b60a08801519092506001600160a01b038116811461013857600080fd5b809150509295509295509295565b60805160a05160c05160e051610100516101205161014051610ce26101b46000396000818160f10152610342015260008181610225015261065d01526000610558015260006104fa01526000610520015260006105940152600081816102be01526103000152610ce26000f3fe6080604052600436106100dd5760003560e01c80635f1b0fd81161007f57806398f693451161005957806398f6934514610249578063c1c244e814610269578063e55ae4e81461027e578063fd6673f51461029e57600080fd5b80635f1b0fd8146101d45780636e04ff0d146101e857806391ad27b41461021657600080fd5b80632cfcc539116100bb5780632cfcc539146101665780634585e33b1461016e578063473f1ddc1461018e57806353a2c19a146101c057600080fd5b806309bc33a7146100e2578063115cbaf5146101245780631fe543e314610144575b600080fd5b3480156100ee57600080fd5b507f00000000000000000000000000000000000000000000000000000000000000005b6040519081526020015b60405180910390f35b34801561013057600080fd5b5060035460ff1660405161011b919061097f565b34801561015057600080fd5b5061016461015f3660046109ee565b6102b3565b005b610164610340565b34801561017a57600080fd5b50610164610189366004610aa0565b610473565b34801561019a57600080fd5b506001546001600160a01b03165b6040516001600160a01b03909116815260200161011b565b3480156101cc57600080fd5b506001610111565b3480156101e057600080fd5b506003610111565b3480156101f457600080fd5b50610208610203366004610b12565b610635565b60405161011b929190610ba7565b34801561022257600080fd5b507f0000000000000000000000000000000000000000000000000000000000000000610111565b34801561025557600080fd5b50610111610264366004610c00565b6106da565b34801561027557600080fd5b50600054610111565b34801561028a57600080fd5b506101a8610299366004610c00565b610708565b3480156102aa57600080fd5b50600254610111565b336001600160a01b037f000000000000000000000000000000000000000000000000000000000000000016146103325760405163073e64fd60e21b81523360048201526001600160a01b037f00000000000000000000000000000000000000000000000000000000000000001660248201526044015b60405180910390fd5b61033c828261073d565b5050565b7f00000000000000000000000000000000000000000000000000000000000000003410156103815760405163181c600560e11b815260040160405180910390fd5b600060035460ff16600181111561039a5761039a610969565b146103b85760405163349289c560e21b815260040160405180910390fd5b604080518082018252338082523460208301908152600280546001810182556000828152945191027f405787fa12a823e0f2b7631cc41b3ba8828b3321ca811111fa75cd3aa3bb5ace810180546001600160a01b03939093166001600160a01b03199093169290921790915590517f405787fa12a823e0f2b7631cc41b3ba8828b3321ca811111fa75cd3aa3bb5acf9091015591517f0805e1d667bddb8a95f0f09880cf94f403fb596ce79928d9f29b74203ba284d49190a2565b600061048d60405180602001604052806000815250610635565b509050806104dc5760025460035447919060ff1660018111156104b2576104b2610969565b604051632c2193d560e11b8152600481019390935260248301919091526044820152606401610329565b6003805460ff1916600190811782556040516305d3b1d360e41b81527f000000000000000000000000000000000000000000000000000000000000000060048201527f000000000000000000000000000000000000000000000000000000000000000067ffffffffffffffff16602482015260448101929092527f000000000000000000000000000000000000000000000000000000000000000063ffffffff16606483015260848201526000906001600160a01b037f00000000000000000000000000000000000000000000000000000000000000001690635d3b1d309060a4016020604051808303816000875af11580156105dd573d6000803e3d6000fd5b505050506040513d601f19601f820116820180604052508101906106019190610c19565b60405190915081907fcd6e45c8998311cab7e9d4385596cac867e20a0587194b954fa3a731c93ce78b90600090a250505050565b600354600090606090829060ff16600181111561065457610654610969565b600014905060007f00000000000000000000000000000000000000000000000000000000000000006000544261068a9190610c48565b6002549110915015154715158280156106a05750835b80156106a95750805b80156106b25750815b60408051808201909152600381526203078360ec1b6020820152909890975095505050505050565b6000600282815481106106ef576106ef610c61565b9060005260206000209060020201600101549050919050565b60006002828154811061071d5761071d610c61565b60009182526020909120600290910201546001600160a01b031692915050565b6000805b600254811015610785576002818154811061075e5761075e610c61565b9060005260206000209060020201600101548261077b9190610c77565b9150600101610741565b506000818360008151811061079c5761079c610c61565b60200260200101516107ae9190610c8a565b9050600080805b60025481101561083557600281815481106107d2576107d2610c61565b906000526020600020906002020160010154836107ef9190610c77565b92508284101561082d576002818154811061080c5761080c610c61565b60009182526020909120600290910201546001600160a01b03169150610835565b6001016107b5565b50600180546001600160a01b0319166001600160a01b03831617905561085d6002600061091b565b6003805460ff191690554260009081556040516001600160a01b038316917f5b690ec4a06fe979403046eaeea5b3ce38524683c3001f662c8b5a829632f7df91a26000816001600160a01b03164760405160006040518083038185875af1925050503d80600081146108eb576040519150601f19603f3d011682016040523d82523d6000602084013e6108f0565b606091505b50509050806109125760405163a1d04b3960e01b815260040160405180910390fd5b50505050505050565b508054600082556002029060005260206000209081019061093c919061093f565b50565b5b808211156109655780546001600160a01b031916815560006001820155600201610940565b5090565b634e487b7160e01b600052602160045260246000fd5b60208101600283106109a157634e487b7160e01b600052602160045260246000fd5b91905290565b634e487b7160e01b600052604160045260246000fd5b604051601f8201601f1916810167ffffffffffffffff811182821017156109e6576109e66109a7565b604052919050565b60008060408385031215610a0157600080fd5b8235915060208084013567ffffffffffffffff80821115610a2157600080fd5b818601915086601f830112610a3557600080fd5b813581811115610a4757610a476109a7565b8060051b9150610a588483016109bd565b8181529183018401918481019089841115610a7257600080fd5b938501935b83851015610a9057843582529385019390850190610a77565b8096505050505050509250929050565b60008060208385031215610ab357600080fd5b823567ffffffffffffffff80821115610acb57600080fd5b818501915085601f830112610adf57600080fd5b813581811115610aee57600080fd5b866020828501011115610b0057600080fd5b60209290920196919550909350505050565b60006020808385031215610b2557600080fd5b823567ffffffffffffffff80821115610b3d57600080fd5b818501915085601f830112610b5157600080fd5b813581811115610b6357610b636109a7565b610b75601f8201601f191685016109bd565b91508082528684828501011115610b8b57600080fd5b8084840185840137600090820190930192909252509392505050565b82151581526000602060406020840152835180604085015260005b81811015610bde57858101830151858201606001528201610bc2565b506000606082860101526060601f19601f830116850101925050509392505050565b600060208284031215610c1257600080fd5b5035919050565b600060208284031215610c2b57600080fd5b5051919050565b634e487b7160e01b600052601160045260246000fd5b81810381811115610c5b57610c5b610c32565b92915050565b634e487b7160e01b600052603260045260246000fd5b80820180821115610c5b57610c5b610c32565b600082610ca757634e487b7160e01b600052601260045260246000fd5b50069056fea26469706673582212206459eb11d5d13c0c7e918ab4cd52ade9f157a7c8cd91fed0d6b4c825074c1aa364736f6c634300081900330000000000000000000000000000000000000000000000000000000000002e9a474e34a077df58807dbe9c96d3c009b23b3c6d0cce433e59bbf5b34f823bc56c000000000000000000000000000000000000000000000000000000000000001e000000000000000000000000000000000000000000000000002386f26fc10000000000000000000000000000000000000000000000000000000000000007a1200000000000000000000000008103b0a8a00be2ddc778e6e7eaa21791cd364625",
        "nonce": "0x6d",
        "chainId": "0xaa36a7"
      },
      "additionalContracts": [],
      "isFixedGasLimit": false
    },
    {
      "hash": "0x00c746215c3e1bfa2754e884bdbfbcf068f622b845a95ae5b3908399a0aa519e",
      "transactionType": "CALL",
      "contractName": null,
      "contractAddress": "0x8103b0a8a00be2ddc778e6e7eaa21791cd364625",
      "function": "addConsumer(uint64,address)",
      "arguments": [
        "11930",
        "0x6f68D3667eF64c48a54325d818B7F0f7797076f7"
      ],
      "transaction": {
        "from": "0x3b29236323d90e62782737eaef81a2dfdbfb95fd",
        "to": "0x8103b0a8a00be2ddc778e6e7eaa21791cd364625",
        "gas": "0x21eb0",
        "value": "0x0",
        "input": "0x7341c10c0000000000000000000000000000000000000000000000000000000000002e9a0000000000000000000000006f68d3667ef64c48a54325d818b7f0f7797076f7",
        "nonce": "0x6e",
        "chainId": "0xaa36a7"
      },
      "additionalContracts": [],
      "isFixedGasLimit": false
    }
  ],
  "receipts": [
    {
      "status": "0x1",
      "cumulativeGasUsed": "0xc32d85",
      "logs": [
        {
          "address": "0x8103b0a8a00be2ddc778e6e7eaa21791cd364625",
          "topics": [
            "0x464722b4166576d3dcbba877b999bc35cf911f4eaf434b7eba68fa113951d0bf",
            "0x0000000000000000000000000000000000000000000000000000000000002e9a"
          ],
          "data": "0x0000000000000000000000003b29236323d90e62782737eaef81a2dfdbfb95fd",
          "blockHash": "0xcfc78940e6f0d15df33fbb71be6a15320a0495d5d78512c78e67290a2beef0f1",
          "blockNumber": "0x5e1cb9",
          "transactionHash": "0xf6a04b8da414538818593e11cf97950dacb1feaf7df2bc0e2fafab4a9f285d1d",
          "transactionIndex": "0x54",
          "logIndex": "0xb5",
          "removed": false
        }
      ],
      "logsBloom": "0x0000008000000000000001000000000000000000000000000000000000000000010000020000000000000000000000000000000000000000000000000000000000000000000000000000000000000000000000000000000000000000000000000000000000000000000000000000000000000000000000000000000000000000000000000c000020000000000000000000000000000000000000000000000000000000000000000000000000000000000000000000000000000000000080000000000000000000200000000000000000000000000000000000000000000000000000000000000000000000000000000000000000000000000000000000000000",
      "type": "0x2",
      "transactionHash": "0xf6a04b8da414538818593e11cf97950dacb1feaf7df2bc0e2fafab4a9f285d1d",
      "transactionIndex": "0x54",
      "blockHash": "0xcfc78940e6f0d15df33fbb71be6a15320a0495d5d78512c78e67290a2beef0f1",
      "blockNumber": "0x5e1cb9",
      "gasUsed": "0xe98a",
      "effectiveGasPrice": "0xc2578535",
      "from": "0x3b29236323d90e62782737eaef81a2dfdbfb95fd",
      "to": "0x8103b0a8a00be2ddc778e6e7eaa21791cd364625",
      "contractAddress": null
    },
    {
      "status": "0x1",
      "cumulativeGasUsed": "0xc457cf",
      "logs": [
        {
          "address": "0x779877a7b0d9e8603169ddbd7836e478b4624789",
          "topics": [
            "0xddf252ad1be2c89b69c2b068fc378daa952ba7f163c4a11628f55a4df523b3ef",
            "0x0000000000000000000000003b29236323d90e62782737eaef81a2dfdbfb95fd",
            "0x0000000000000000000000008103b0a8a00be2ddc778e6e7eaa21791cd364625"
          ],
          "data": "0x00000000000000000000000000000000000000000000000029a2241af62c0000",
          "blockHash": "0xcfc78940e6f0d15df33fbb71be6a15320a0495d5d78512c78e67290a2beef0f1",
          "blockNumber": "0x5e1cb9",
          "transactionHash": "0xa0bac5e27587ed09fa1c2f1414049f64cf04dd99c14c49db3e0ce6668f30616b",
          "transactionIndex": "0x55",
          "logIndex": "0xb6",
          "removed": false
        },
        {
          "address": "0x779877a7b0d9e8603169ddbd7836e478b4624789",
          "topics": [
            "0xe19260aff97b920c7df27010903aeb9c8d2be5d310a2c67824cf3f15396e4c16",
            "0x0000000000000000000000003b29236323d90e62782737eaef81a2dfdbfb95fd",
            "0x0000000000000000000000008103b0a8a00be2ddc778e6e7eaa21791cd364625"
          ],
          "data": "0x00000000000000000000000000000000000000000000000029a2241af62c0000000000000000000000000000000000000000000000000000000000000000004000000000000000000000000000000000000000000000000000000000000000200000000000000000000000000000000000000000000000000000000000002e9a",
          "blockHash": "0xcfc78940e6f0d15df33fbb71be6a15320a0495d5d78512c78e67290a2beef0f1",
          "blockNumber": "0x5e1cb9",
          "transactionHash": "0xa0bac5e27587ed09fa1c2f1414049f64cf04dd99c14c49db3e0ce6668f30616b",
          "transactionIndex": "0x55",
          "logIndex": "0xb7",
          "removed": false
        },
        {
          "address": "0x8103b0a8a00be2ddc778e6e7eaa21791cd364625",
          "topics": [
            "0xd39ec07f4e209f627a4c427971473820dc129761ba28de8906bd56f57101d4f8",
            "0x0000000000000000000000000000000000000000000000000000000000002e9a"
          ],
          "data": "0x000000000000000000000000000000000000000000000000000000000000000000000000000000000000000000000000000000000000000029a2241af62c0000",
          "blockHash": "0xcfc78940e6f0d15df33fbb71be6a15320a0495d5d78512c78e67290a2beef0f1",
          "blockNumber": "0x5e1cb9",
          "transactionHash": "0xa0bac5e27587ed09fa1c2f1414049f64cf04dd99c14c49db3e0ce6668f30616b",
          "transactionIndex": "0x55",
          "logIndex": "0xb8",
          "removed": false
        }
      ],
      "logsBloom": "0x0000009400000000000000000000000000000000000000020000000002000000000000020000800000000000000000000000000000000000000000000000000000000000000000000000000800000000000000000000000000002000200100000000000000000000000000000000000000000000400000000000081000000000000000000c000020000000000000800010000020000000000000000000000000000000000000000000000000000000000000000000000000000400000080000000000002000000000000000000000000000000000000000100000000000000000000000000000000000000000000000000000000000000000000000000000000",
      "type": "0x2",
      "transactionHash": "0xa0bac5e27587ed09fa1c2f1414049f64cf04dd99c14c49db3e0ce6668f30616b",
      "transactionIndex": "0x55",
      "blockHash": "0xcfc78940e6f0d15df33fbb71be6a15320a0495d5d78512c78e67290a2beef0f1",
      "blockNumber": "0x5e1cb9",
      "gasUsed": "0x12a4a",
      "effectiveGasPrice": "0xc2578535",
      "from": "0x3b29236323d90e62782737eaef81a2dfdbfb95fd",
      "to": "0x779877a7b0d9e8603169ddbd7836e478b4624789",
      "contractAddress": null
    },
    {
      "status": "0x1",
      "cumulativeGasUsed": "0xd076d0",
      "logs": [],
      "logsBloom": "0x00000000000000000000000000000000000000000000000000000000000000000000000000000000000000000000000000000000000000000000000000000000000000000000000000000000000000000000000000000000000000000000000000000000000000000000000000000000000000000000000000000000000000000000000000000000000000000000000000000000000000000000000000000000000000000000000000000000000000000000000000000000000000000000000000000000000000000000000000000000000000000000000000000000000000000000000000000000000000000000000000000000000000000000000000000000",
      "type": "0x2",
      "transactionHash": "0x3865bfe75b730a9cd8673be8c29ec3cb68c11698bc589e1b96c8eef2abd9d67c",
      "transactionIndex": "0x56",
      "blockHash": "0xcfc78940e6f0d15df33fbb71be6a15320a0495d5d78512c78e67290a2beef0f1",
      "blockNumber": "0x5e1cb9",
      "gasUsed": "0xc1f01",
      "effectiveGasPrice": "0xc2578535",
      "from": "0x3b29236323d90e62782737eaef81a2dfdbfb95fd",
      "to": null,
      "contractAddress": "0x6f68d3667ef64c48a54325d818b7f0f7797076f7"
    },
    {
      "status": "0x1",
      "cumulativeGasUsed": "0xd1e9e2",
      "logs": [
        {
          "address": "0x8103b0a8a00be2ddc778e6e7eaa21791cd364625",
          "topics": [
            "0x43dc749a04ac8fb825cbd514f7c0e13f13bc6f2ee66043b76629d51776cff8e0",
            "0x0000000000000000000000000000000000000000000000000000000000002e9a"
          ],
          "data": "0x0000000000000000000000006f68d3667ef64c48a54325d818b7f0f7797076f7",
          "blockHash": "0xcfc78940e6f0d15df33fbb71be6a15320a0495d5d78512c78e67290a2beef0f1",
          "blockNumber": "0x5e1cb9",
          "transactionHash": "0x00c746215c3e1bfa2754e884bdbfbcf068f622b845a95ae5b3908399a0aa519e",
          "transactionIndex": "0x57",
          "logIndex": "0xb9",
          "removed": false
        }
      ],
      "logsBloom": "0x0000008000000000000000000000000000000000000000000000000000000000000000020000000000000000000000000000000000000000000000000000000000000000000000000000000000000000000000000000000000000000000000000000000000008000000000000000000000000000000000000000000000000000000000000c000020000000000000000000000000000000000000000000000000000000000000000000000080000000000000000000000000000000000080000000000000000000000000000000000000000000000000000000020000000000000000000000000000000000000000000000000000000000000000000000000000",
      "type": "0x2",
      "transactionHash": "0x00c746215c3e1bfa2754e884bdbfbcf068f622b845a95ae5b3908399a0aa519e",
      "transactionIndex": "0x57",
      "blockHash": "0xcfc78940e6f0d15df33fbb71be6a15320a0495d5d78512c78e67290a2beef0f1",
      "blockNumber": "0x5e1cb9",
      "gasUsed": "0x17312",
      "effectiveGasPrice": "0xc2578535",
      "from": "0x3b29236323d90e62782737eaef81a2dfdbfb95fd",
      "to": "0x8103b0a8a00be2ddc778e6e7eaa21791cd364625",
      "contractAddress": null
    }
  ],
  "libraries": [
    "lib/foundry-devops/src/DevOpsTools.sol:DevOpsTools:0x1BE0E723fE52E4E0d2595B4aE3C5d58F6480402d"
  ],
  "pending": [],
  "returns": {
    "1": {
      "internal_type": "contract HelperConfig",
      "value": "0xC7f2Cf4845C6db0e1a1e91ED41Bcd0FcC1b0E141"
    },
    "0": {
      "internal_type": "contract ToucanRaffle",
      "value": "0x6f68D3667eF64c48a54325d818B7F0f7797076f7"
    }
  },
  "timestamp": 1719129195,
  "chain": 11155111,
  "commit": "41c12f7"
}